{
  "contractName": "FirstContract",
  "abi": [
    {
      "constant": true,
      "inputs": [
        {
          "name": "",
          "type": "address"
        }
      ],
      "name": "balances",
      "outputs": [
        {
          "name": "",
          "type": "uint256"
        }
      ],
      "payable": false,
      "stateMutability": "view",
      "type": "function"
    },
    {
      "payable": true,
      "stateMutability": "payable",
      "type": "fallback"
    },
    {
      "constant": false,
      "inputs": [
        {
          "name": "_to",
          "type": "address"
        }
      ],
      "name": "transfer",
      "outputs": [],
      "payable": false,
      "stateMutability": "nonpayable",
      "type": "function"
    }
  ],
  "bytecode": "0x6060604052341561000f57600080fd5b6101de8061001e6000396000f30060606040526004361061004c576000357c0100000000000000000000000000000000000000000000000000000000900463ffffffff1680631a6952301461009357806327e235e3146100cc575b6104d26000803373ffffffffffffffffffffffffffffffffffffffff1673ffffffffffffffffffffffffffffffffffffffff16815260200190815260200160002081905550005b341561009e57600080fd5b6100ca600480803573ffffffffffffffffffffffffffffffffffffffff16906020019091905050610119565b005b34156100d757600080fd5b610103600480803573ffffffffffffffffffffffffffffffffffffffff1690602001909190505061019a565b6040518082815260200191505060405180910390f35b8073ffffffffffffffffffffffffffffffffffffffff166108fc6000803373ffffffffffffffffffffffffffffffffffffffff1673ffffffffffffffffffffffffffffffffffffffff168152602001908152602001600020549081150290604051600060405180830381858888f19350505050151561019757600080fd5b50565b600060205280600052604060002060009150905054815600a165627a7a72305820817da642c0a69c1404d151359991367d4433e99e42317369f02fe03333152c420029",
  "source": "pragma solidity ^0.4.18;\n\ncontract FirstContract  {\n    mapping (address => uint256) public balances;\n\n    function () external payable {\n        balances[msg.sender] = 1234;\n    }\n\n    function transfer(address _to) external {\n    \t_to.transfer(balances[msg.sender]);\n    }\n\n}\n",
  "sourcePath": "/home/odin/truffle-issue/contracts/FirstContract.sol",
  "compiler": {
    "name": "solc",
    "version": "0.4.19+commit.c4cbbb05.Emscripten.clang"
  },
  "schemaVersion": "2.0.0",
  "updatedAt": "2018-03-06T13:29:57.582Z"
}