{
  "contractName": "SecondContract",
  "abi": [
    {
      "constant": true,
      "inputs": [
        {
          "name": "",
          "type": "address"
        }
      ],
      "name": "balances",
      "outputs": [
        {
          "name": "",
          "type": "uint256"
        }
      ],
      "payable": false,
      "stateMutability": "view",
      "type": "function"
    },
    {
      "payable": true,
      "stateMutability": "payable",
      "type": "fallback"
    }
  ],
  "bytecode": "0x6060604052341561000f57600080fd5b6101148061001e6000396000f300606060405260043610603f576000357c0100000000000000000000000000000000000000000000000000000000900463ffffffff16806327e235e3146086575b6104d26000803373ffffffffffffffffffffffffffffffffffffffff1673ffffffffffffffffffffffffffffffffffffffff16815260200190815260200160002081905550005b3415609057600080fd5b60ba600480803573ffffffffffffffffffffffffffffffffffffffff1690602001909190505060d0565b6040518082815260200191505060405180910390f35b600060205280600052604060002060009150905054815600a165627a7a72305820782edc90954f7cb6d3f52507bb0c0dfac719411a1b0453861747f2af8f69bc7e0029",
  "source": "pragma solidity ^0.4.18;\n\ncontract SecondContract  {\n    mapping (address => uint256) public balances;\n\n    function () external payable {\n        balances[msg.sender] = 1234;\n    }\n\n}\n",
  "sourcePath": "/home/odin/truffle-issue/contracts/SecondContract.sol",
  "compiler": {
    "name": "solc",
    "version": "0.4.19+commit.c4cbbb05.Emscripten.clang"
  },
  "schemaVersion": "2.0.0",
  "updatedAt": "2018-03-06T13:29:57.583Z"
}